{
  "_format": "hh-sol-artifact-1",
  "contractName": "AirdropMerkle",
  "sourceName": "contracts/MerkleAirdrop.sol",
  "abi": [
    {
      "inputs": [
        {
          "internalType": "address",
          "name": "_token",
          "type": "address"
        }
      ],
      "stateMutability": "nonpayable",
      "type": "constructor"
    },
    {
      "anonymous": false,
      "inputs": [
        {
          "indexed": true,
          "internalType": "address",
          "name": "account",
          "type": "address"
        },
        {
          "indexed": false,
          "internalType": "uint256",
          "name": "amount",
          "type": "uint256"
        }
      ],
      "name": "Claim",
      "type": "event"
    },
    {
      "anonymous": false,
      "inputs": [
        {
          "indexed": false,
          "internalType": "bytes32",
          "name": "newMerkleRoot",
          "type": "bytes32"
        }
      ],
      "name": "MerkleRootUpdated",
      "type": "event"
    },
    {
      "anonymous": false,
      "inputs": [
        {
          "indexed": true,
          "internalType": "address",
          "name": "previousOwner",
          "type": "address"
        },
        {
          "indexed": true,
          "internalType": "address",
          "name": "newOwner",
          "type": "address"
        }
      ],
      "name": "OwnershipTransferred",
      "type": "event"
    },
    {
      "inputs": [
        {
          "internalType": "bytes32[]",
          "name": "proof",
          "type": "bytes32[]"
        },
        {
          "internalType": "uint256",
          "name": "amount",
          "type": "uint256"
        }
      ],
      "name": "claim",
      "outputs": [],
      "stateMutability": "nonpayable",
      "type": "function"
    },
    {
      "inputs": [
        {
          "internalType": "address",
          "name": "",
          "type": "address"
        }
      ],
      "name": "claimed",
      "outputs": [
        {
          "internalType": "bool",
          "name": "",
          "type": "bool"
        }
      ],
      "stateMutability": "view",
      "type": "function"
    },
    {
      "inputs": [],
      "name": "merkleRoot",
      "outputs": [
        {
          "internalType": "bytes32",
          "name": "",
          "type": "bytes32"
        }
      ],
      "stateMutability": "view",
      "type": "function"
    },
    {
      "inputs": [],
      "name": "owner",
      "outputs": [
        {
          "internalType": "address",
          "name": "",
          "type": "address"
        }
      ],
      "stateMutability": "view",
      "type": "function"
    },
    {
      "inputs": [],
      "name": "renounceOwnership",
      "outputs": [],
      "stateMutability": "nonpayable",
      "type": "function"
    },
    {
      "inputs": [],
      "name": "token",
      "outputs": [
        {
          "internalType": "contract AirdropToken",
          "name": "",
          "type": "address"
        }
      ],
      "stateMutability": "view",
      "type": "function"
    },
    {
      "inputs": [
        {
          "internalType": "address",
          "name": "newOwner",
          "type": "address"
        }
      ],
      "name": "transferOwnership",
      "outputs": [],
      "stateMutability": "nonpayable",
      "type": "function"
    },
    {
      "inputs": [
        {
          "internalType": "bytes32",
          "name": "newMerkleRoot",
          "type": "bytes32"
        }
      ],
      "name": "updateMerkleRoot",
      "outputs": [],
      "stateMutability": "nonpayable",
      "type": "function"
    }
  ],
  "bytecode": "0x608060405234801561001057600080fd5b5060405161078f38038061078f83398101604081905261002f916100ad565b6100383361005d565b600180546001600160a01b0319166001600160a01b03929092169190911790556100dd565b600080546001600160a01b038381166001600160a01b0319831681178455604051919092169283917f8be0079c531659141344cd1fd0a4f28419497f9722a3daafe3b4186f6b6457e09190a35050565b6000602082840312156100bf57600080fd5b81516001600160a01b03811681146100d657600080fd5b9392505050565b6106a3806100ec6000396000f3fe608060405234801561001057600080fd5b50600436106100885760003560e01c80638da5cb5b1161005b5780638da5cb5b146100d9578063c884ef83146100fe578063f2fde38b14610131578063fc0c546a1461014457600080fd5b80632eb4a7ab1461008d5780633b439351146100a95780634783f0ef146100be578063715018a6146100d1575b600080fd5b61009660025481565b6040519081526020015b60405180910390f35b6100bc6100b736600461054f565b610157565b005b6100bc6100cc3660046105ca565b610340565b6100bc610383565b6000546001600160a01b03165b6040516001600160a01b0390911681526020016100a0565b61012161010c3660046105e3565b60036020526000908152604090205460ff1681565b60405190151581526020016100a0565b6100bc61013f3660046105e3565b610397565b6001546100e6906001600160a01b031681565b3360009081526003602052604090205460ff16156101ae5760405162461bcd60e51b815260206004820152600f60248201526e105b1c9958591e4818db185a5b5959608a1b60448201526064015b60405180910390fd5b6040516bffffffffffffffffffffffff193360601b166020820152600090603401604051602081830303815290604052805190602001209050610228848480806020026020016040519081016040528093929190818152602001838360200280828437600092019190915250506002549150849050610410565b6102645760405162461bcd60e51b815260206004820152600d60248201526c24b73b30b634b210383937b7b360991b60448201526064016101a5565b3360008181526003602052604090819020805460ff1916600190811790915554905163a9059cbb60e01b81526004810192909252602482018490526001600160a01b03169063a9059cbb90604401602060405180830381600087803b1580156102cc57600080fd5b505af11580156102e0573d6000803e3d6000fd5b505050506040513d601f19601f82011682018060405250810190610304919061060c565b5060405182815233907f47cee97cb7acd717b3c0aa1435d004cd5b3c8c57d70dbceb4e4458bbd60e39d49060200160405180910390a250505050565b610348610426565b60028190556040518181527f90004c04698bc3322499a575ed3752dd4abf33e0a7294c06a787a0fe01bea9419060200160405180910390a150565b61038b610426565b6103956000610480565b565b61039f610426565b6001600160a01b0381166104045760405162461bcd60e51b815260206004820152602660248201527f4f776e61626c653a206e6577206f776e657220697320746865207a65726f206160448201526564647265737360d01b60648201526084016101a5565b61040d81610480565b50565b60008261041d85846104d0565b14949350505050565b6000546001600160a01b031633146103955760405162461bcd60e51b815260206004820181905260248201527f4f776e61626c653a2063616c6c6572206973206e6f7420746865206f776e657260448201526064016101a5565b600080546001600160a01b038381166001600160a01b0319831681178455604051919092169283917f8be0079c531659141344cd1fd0a4f28419497f9722a3daafe3b4186f6b6457e09190a35050565b600081815b845181101561051557610501828683815181106104f4576104f461062e565b602002602001015161051d565b91508061050d81610644565b9150506104d5565b509392505050565b6000818310610539576000828152602084905260409020610548565b60008381526020839052604090205b9392505050565b60008060006040848603121561056457600080fd5b833567ffffffffffffffff8082111561057c57600080fd5b818601915086601f83011261059057600080fd5b81358181111561059f57600080fd5b8760208260051b85010111156105b457600080fd5b6020928301989097509590910135949350505050565b6000602082840312156105dc57600080fd5b5035919050565b6000602082840312156105f557600080fd5b81356001600160a01b038116811461054857600080fd5b60006020828403121561061e57600080fd5b8151801515811461054857600080fd5b634e487b7160e01b600052603260045260246000fd5b600060001982141561066657634e487b7160e01b600052601160045260246000fd5b506001019056fea2646970667358221220acee7ff4d61fc0aeb8eb0292b5ca7ad020177d50cd5b18b8b7ff9ca7de2f822064736f6c63430008090033",
  "linkReferences": {},
  "deployedLinkReferences": {}
}