{
  "_format": "hh-sol-artifact-1",
  "contractName": "AirdropMerkle",
  "sourceName": "contracts/MerkleAirdrop.sol",
  "abi": [
    {
      "inputs": [
        {
          "internalType": "address",
          "name": "_token",
          "type": "address"
        }
      ],
      "stateMutability": "nonpayable",
      "type": "constructor"
    },
    {
      "anonymous": false,
      "inputs": [
        {
          "indexed": true,
          "internalType": "address",
          "name": "account",
          "type": "address"
        },
        {
          "indexed": false,
          "internalType": "uint256",
          "name": "amount",
          "type": "uint256"
        }
      ],
      "name": "Claim",
      "type": "event"
    },
    {
      "anonymous": false,
      "inputs": [
        {
          "indexed": false,
          "internalType": "bytes32",
          "name": "newMerkleRoot",
          "type": "bytes32"
        }
      ],
      "name": "MerkleRootUpdated",
      "type": "event"
    },
    {
      "anonymous": false,
      "inputs": [
        {
          "indexed": true,
          "internalType": "address",
          "name": "previousOwner",
          "type": "address"
        },
        {
          "indexed": true,
          "internalType": "address",
          "name": "newOwner",
          "type": "address"
        }
      ],
      "name": "OwnershipTransferred",
      "type": "event"
    },
    {
      "inputs": [
        {
          "internalType": "bytes32[]",
          "name": "proof",
          "type": "bytes32[]"
        },
        {
          "internalType": "bytes32",
          "name": "leaf",
          "type": "bytes32"
        }
      ],
      "name": "claim",
      "outputs": [],
      "stateMutability": "nonpayable",
      "type": "function"
    },
    {
      "inputs": [
        {
          "internalType": "address",
          "name": "",
          "type": "address"
        }
      ],
      "name": "claimed",
      "outputs": [
        {
          "internalType": "bool",
          "name": "",
          "type": "bool"
        }
      ],
      "stateMutability": "view",
      "type": "function"
    },
    {
      "inputs": [],
      "name": "merkleRoot",
      "outputs": [
        {
          "internalType": "bytes32",
          "name": "",
          "type": "bytes32"
        }
      ],
      "stateMutability": "view",
      "type": "function"
    },
    {
      "inputs": [],
      "name": "owner",
      "outputs": [
        {
          "internalType": "address",
          "name": "",
          "type": "address"
        }
      ],
      "stateMutability": "view",
      "type": "function"
    },
    {
      "inputs": [],
      "name": "renounceOwnership",
      "outputs": [],
      "stateMutability": "nonpayable",
      "type": "function"
    },
    {
      "inputs": [],
      "name": "token",
      "outputs": [
        {
          "internalType": "contract AirdropToken",
          "name": "",
          "type": "address"
        }
      ],
      "stateMutability": "view",
      "type": "function"
    },
    {
      "inputs": [
        {
          "internalType": "address",
          "name": "newOwner",
          "type": "address"
        }
      ],
      "name": "transferOwnership",
      "outputs": [],
      "stateMutability": "nonpayable",
      "type": "function"
    },
    {
      "inputs": [
        {
          "internalType": "bytes32",
          "name": "newMerkleRoot",
          "type": "bytes32"
        }
      ],
      "name": "updateMerkleRoot",
      "outputs": [],
      "stateMutability": "nonpayable",
      "type": "function"
    }
  ],
  "bytecode": "0x608060405234801561001057600080fd5b506040516107f83803806107f883398101604081905261002f916100ad565b6100383361005d565b600180546001600160a01b0319166001600160a01b03929092169190911790556100dd565b600080546001600160a01b038381166001600160a01b0319831681178455604051919092169283917f8be0079c531659141344cd1fd0a4f28419497f9722a3daafe3b4186f6b6457e09190a35050565b6000602082840312156100bf57600080fd5b81516001600160a01b03811681146100d657600080fd5b9392505050565b61070c806100ec6000396000f3fe608060405234801561001057600080fd5b50600436106100885760003560e01c80638da5cb5b1161005b5780638da5cb5b146100d9578063c884ef83146100fe578063f2fde38b14610131578063fc0c546a1461014457600080fd5b80632eb4a7ab1461008d5780634783f0ef146100a9578063715018a6146100be57806372e71240146100c6575b600080fd5b61009660025481565b6040519081526020015b60405180910390f35b6100bc6100b73660046105b8565b610157565b005b6100bc61019a565b6100bc6100d43660046105d1565b6101ae565b6000546001600160a01b03165b6040516001600160a01b0390911681526020016100a0565b61012161010c36600461064c565b60036020526000908152604090205460ff1681565b60405190151581526020016100a0565b6100bc61013f36600461064c565b610400565b6001546100e6906001600160a01b031681565b61015f610479565b60028190556040518181527f90004c04698bc3322499a575ed3752dd4abf33e0a7294c06a787a0fe01bea9419060200160405180910390a150565b6101a2610479565b6101ac60006104d3565b565b3360009081526003602052604090205460ff16156102055760405162461bcd60e51b815260206004820152600f60248201526e105b1c9958591e4818db185a5b5959608a1b60448201526064015b60405180910390fd5b6040516bffffffffffffffffffffffff193360601b1660208201526034016040516020818303038152906040528051906020012081146102995760405162461bcd60e51b815260206004820152602960248201527f4f6e6c7920746f6b656e20636c61696d65722063616e2063616c6c207468697360448201526810333ab731ba34b7b760b91b60648201526084016101fc565b6102da838380806020026020016040519081016040528093929190818152602001838360200280828437600092019190915250506002549150849050610523565b6103165760405162461bcd60e51b815260206004820152600d60248201526c24b73b30b634b210383937b7b360991b60448201526064016101fc565b3360008181526003602052604090819020805460ff1916600190811790915554905163a9059cbb60e01b81526004810192909252670de0b6b3a764000060248301526001600160a01b03169063a9059cbb90604401602060405180830381600087803b15801561038557600080fd5b505af1158015610399573d6000803e3d6000fd5b505050506040513d601f19601f820116820180604052508101906103bd9190610675565b50604051670de0b6b3a7640000815233907f47cee97cb7acd717b3c0aa1435d004cd5b3c8c57d70dbceb4e4458bbd60e39d49060200160405180910390a2505050565b610408610479565b6001600160a01b03811661046d5760405162461bcd60e51b815260206004820152602660248201527f4f776e61626c653a206e6577206f776e657220697320746865207a65726f206160448201526564647265737360d01b60648201526084016101fc565b610476816104d3565b50565b6000546001600160a01b031633146101ac5760405162461bcd60e51b815260206004820181905260248201527f4f776e61626c653a2063616c6c6572206973206e6f7420746865206f776e657260448201526064016101fc565b600080546001600160a01b038381166001600160a01b0319831681178455604051919092169283917f8be0079c531659141344cd1fd0a4f28419497f9722a3daafe3b4186f6b6457e09190a35050565b6000826105308584610539565b14949350505050565b600081815b845181101561057e5761056a8286838151811061055d5761055d610697565b6020026020010151610586565b915080610576816106ad565b91505061053e565b509392505050565b60008183106105a25760008281526020849052604090206105b1565b60008381526020839052604090205b9392505050565b6000602082840312156105ca57600080fd5b5035919050565b6000806000604084860312156105e657600080fd5b833567ffffffffffffffff808211156105fe57600080fd5b818601915086601f83011261061257600080fd5b81358181111561062157600080fd5b8760208260051b850101111561063657600080fd5b6020928301989097509590910135949350505050565b60006020828403121561065e57600080fd5b81356001600160a01b03811681146105b157600080fd5b60006020828403121561068757600080fd5b815180151581146105b157600080fd5b634e487b7160e01b600052603260045260246000fd5b60006000198214156106cf57634e487b7160e01b600052601160045260246000fd5b506001019056fea2646970667358221220d4593657447bea00277057f6d29a572c77efe34b89043af9f913d118f862e88564736f6c63430008090033",
  "linkReferences": {},
  "deployedLinkReferences": {}
}