{
  "_format": "hh-sol-artifact-1",
  "contractName": "AirdropToken",
  "sourceName": "contracts/AirdropToken.sol",
  "abi": [
    {
      "inputs": [],
      "stateMutability": "nonpayable",
      "type": "constructor"
    },
    {
      "inputs": [],
      "name": "InvalidShortString",
      "type": "error"
    },
    {
      "inputs": [
        {
          "internalType": "string",
          "name": "str",
          "type": "string"
        }
      ],
      "name": "StringTooLong",
      "type": "error"
    },
    {
      "anonymous": false,
      "inputs": [
        {
          "indexed": true,
          "internalType": "address",
          "name": "owner",
          "type": "address"
        },
        {
          "indexed": true,
          "internalType": "address",
          "name": "spender",
          "type": "address"
        },
        {
          "indexed": false,
          "internalType": "uint256",
          "name": "value",
          "type": "uint256"
        }
      ],
      "name": "Approval",
      "type": "event"
    },
    {
      "anonymous": false,
      "inputs": [],
      "name": "EIP712DomainChanged",
      "type": "event"
    },
    {
      "anonymous": false,
      "inputs": [
        {
          "indexed": true,
          "internalType": "address",
          "name": "previousOwner",
          "type": "address"
        },
        {
          "indexed": true,
          "internalType": "address",
          "name": "newOwner",
          "type": "address"
        }
      ],
      "name": "OwnershipTransferred",
      "type": "event"
    },
    {
      "anonymous": false,
      "inputs": [
        {
          "indexed": true,
          "internalType": "address",
          "name": "from",
          "type": "address"
        },
        {
          "indexed": true,
          "internalType": "address",
          "name": "to",
          "type": "address"
        },
        {
          "indexed": false,
          "internalType": "uint256",
          "name": "value",
          "type": "uint256"
        }
      ],
      "name": "Transfer",
      "type": "event"
    },
    {
      "inputs": [],
      "name": "DOMAIN_SEPARATOR",
      "outputs": [
        {
          "internalType": "bytes32",
          "name": "",
          "type": "bytes32"
        }
      ],
      "stateMutability": "view",
      "type": "function"
    },
    {
      "inputs": [
        {
          "internalType": "address",
          "name": "owner",
          "type": "address"
        },
        {
          "internalType": "address",
          "name": "spender",
          "type": "address"
        }
      ],
      "name": "allowance",
      "outputs": [
        {
          "internalType": "uint256",
          "name": "",
          "type": "uint256"
        }
      ],
      "stateMutability": "view",
      "type": "function"
    },
    {
      "inputs": [
        {
          "internalType": "address",
          "name": "spender",
          "type": "address"
        },
        {
          "internalType": "uint256",
          "name": "amount",
          "type": "uint256"
        }
      ],
      "name": "approve",
      "outputs": [
        {
          "internalType": "bool",
          "name": "",
          "type": "bool"
        }
      ],
      "stateMutability": "nonpayable",
      "type": "function"
    },
    {
      "inputs": [
        {
          "internalType": "address",
          "name": "account",
          "type": "address"
        }
      ],
      "name": "balanceOf",
      "outputs": [
        {
          "internalType": "uint256",
          "name": "",
          "type": "uint256"
        }
      ],
      "stateMutability": "view",
      "type": "function"
    },
    {
      "inputs": [],
      "name": "decimals",
      "outputs": [
        {
          "internalType": "uint8",
          "name": "",
          "type": "uint8"
        }
      ],
      "stateMutability": "view",
      "type": "function"
    },
    {
      "inputs": [
        {
          "internalType": "address",
          "name": "spender",
          "type": "address"
        },
        {
          "internalType": "uint256",
          "name": "subtractedValue",
          "type": "uint256"
        }
      ],
      "name": "decreaseAllowance",
      "outputs": [
        {
          "internalType": "bool",
          "name": "",
          "type": "bool"
        }
      ],
      "stateMutability": "nonpayable",
      "type": "function"
    },
    {
      "inputs": [],
      "name": "eip712Domain",
      "outputs": [
        {
          "internalType": "bytes1",
          "name": "fields",
          "type": "bytes1"
        },
        {
          "internalType": "string",
          "name": "name",
          "type": "string"
        },
        {
          "internalType": "string",
          "name": "version",
          "type": "string"
        },
        {
          "internalType": "uint256",
          "name": "chainId",
          "type": "uint256"
        },
        {
          "internalType": "address",
          "name": "verifyingContract",
          "type": "address"
        },
        {
          "internalType": "bytes32",
          "name": "salt",
          "type": "bytes32"
        },
        {
          "internalType": "uint256[]",
          "name": "extensions",
          "type": "uint256[]"
        }
      ],
      "stateMutability": "view",
      "type": "function"
    },
    {
      "inputs": [
        {
          "internalType": "address",
          "name": "spender",
          "type": "address"
        },
        {
          "internalType": "uint256",
          "name": "addedValue",
          "type": "uint256"
        }
      ],
      "name": "increaseAllowance",
      "outputs": [
        {
          "internalType": "bool",
          "name": "",
          "type": "bool"
        }
      ],
      "stateMutability": "nonpayable",
      "type": "function"
    },
    {
      "inputs": [
        {
          "internalType": "address",
          "name": "to",
          "type": "address"
        },
        {
          "internalType": "uint256",
          "name": "amount",
          "type": "uint256"
        }
      ],
      "name": "mint",
      "outputs": [],
      "stateMutability": "nonpayable",
      "type": "function"
    },
    {
      "inputs": [],
      "name": "name",
      "outputs": [
        {
          "internalType": "string",
          "name": "",
          "type": "string"
        }
      ],
      "stateMutability": "view",
      "type": "function"
    },
    {
      "inputs": [
        {
          "internalType": "address",
          "name": "owner",
          "type": "address"
        }
      ],
      "name": "nonces",
      "outputs": [
        {
          "internalType": "uint256",
          "name": "",
          "type": "uint256"
        }
      ],
      "stateMutability": "view",
      "type": "function"
    },
    {
      "inputs": [],
      "name": "owner",
      "outputs": [
        {
          "internalType": "address",
          "name": "",
          "type": "address"
        }
      ],
      "stateMutability": "view",
      "type": "function"
    },
    {
      "inputs": [
        {
          "internalType": "address",
          "name": "owner",
          "type": "address"
        },
        {
          "internalType": "address",
          "name": "spender",
          "type": "address"
        },
        {
          "internalType": "uint256",
          "name": "value",
          "type": "uint256"
        },
        {
          "internalType": "uint256",
          "name": "deadline",
          "type": "uint256"
        },
        {
          "internalType": "uint8",
          "name": "v",
          "type": "uint8"
        },
        {
          "internalType": "bytes32",
          "name": "r",
          "type": "bytes32"
        },
        {
          "internalType": "bytes32",
          "name": "s",
          "type": "bytes32"
        }
      ],
      "name": "permit",
      "outputs": [],
      "stateMutability": "nonpayable",
      "type": "function"
    },
    {
      "inputs": [],
      "name": "renounceOwnership",
      "outputs": [],
      "stateMutability": "nonpayable",
      "type": "function"
    },
    {
      "inputs": [],
      "name": "symbol",
      "outputs": [
        {
          "internalType": "string",
          "name": "",
          "type": "string"
        }
      ],
      "stateMutability": "view",
      "type": "function"
    },
    {
      "inputs": [],
      "name": "totalSupply",
      "outputs": [
        {
          "internalType": "uint256",
          "name": "",
          "type": "uint256"
        }
      ],
      "stateMutability": "view",
      "type": "function"
    },
    {
      "inputs": [
        {
          "internalType": "address",
          "name": "to",
          "type": "address"
        },
        {
          "internalType": "uint256",
          "name": "amount",
          "type": "uint256"
        }
      ],
      "name": "transfer",
      "outputs": [
        {
          "internalType": "bool",
          "name": "",
          "type": "bool"
        }
      ],
      "stateMutability": "nonpayable",
      "type": "function"
    },
    {
      "inputs": [
        {
          "internalType": "address",
          "name": "from",
          "type": "address"
        },
        {
          "internalType": "address",
          "name": "to",
          "type": "address"
        },
        {
          "internalType": "uint256",
          "name": "amount",
          "type": "uint256"
        }
      ],
      "name": "transferFrom",
      "outputs": [
        {
          "internalType": "bool",
          "name": "",
          "type": "bool"
        }
      ],
      "stateMutability": "nonpayable",
      "type": "function"
    },
    {
      "inputs": [
        {
          "internalType": "address",
          "name": "newOwner",
          "type": "address"
        }
      ],
      "name": "transferOwnership",
      "outputs": [],
      "stateMutability": "nonpayable",
      "type": "function"
    }
  ],
  "bytecode": "0x6101606040523480156200001257600080fd5b506040518060400160405280600c81526020016b20b4b9323937b82a37b5b2b760a11b81525080604051806040016040528060018152602001603160f81b8152506040518060400160405280600c81526020016b20b4b9323937b82a37b5b2b760a11b8152506040518060400160405280600381526020016220a4a960e91b8152508160039080519060200190620000ac92919062000381565b508051620000c290600490602084019062000381565b505050620000df620000d9620001ca60201b60201c565b620001ce565b620000fa6006836200022060201b620007231790919060201c565b610120526200011781600762000220602090811b6200072317901c565b61014052815160208084019190912060e052815190820120610100524660a052620001a560e05161010051604080517f8b73c3c69bb8fe3d512ecc4cf759cc79239f7b179b0ffacaa9a75d522b39400f60208201529081019290925260608201524660808201523060a082015260009060c00160405160208183030381529060405280519060200120905090565b60805250503060c05250620001c43368056bc75e2d6310000062000274565b62000505565b3390565b600580546001600160a01b038381166001600160a01b0319831681179093556040519116919082907f8be0079c531659141344cd1fd0a4f28419497f9722a3daafe3b4186f6b6457e090600090a35050565b6000602083511015620002405762000238836200033b565b90506200026e565b8262000257836200037e60201b6200075a1760201c565b815162000268926020019062000381565b5060ff90505b92915050565b6001600160a01b038216620002d05760405162461bcd60e51b815260206004820152601f60248201527f45524332303a206d696e7420746f20746865207a65726f20616464726573730060448201526064015b60405180910390fd5b8060026000828254620002e4919062000427565b90915550506001600160a01b038216600081815260208181526040808320805486019055518481527fddf252ad1be2c89b69c2b068fc378daa952ba7f163c4a11628f55a4df523b3ef910160405180910390a35050565b600080829050601f8151111562000369578260405163305a27a960e01b8152600401620002c791906200044e565b80516200037682620004a6565b179392505050565b90565b8280546200038f90620004ce565b90600052602060002090601f016020900481019282620003b35760008555620003fe565b82601f10620003ce57805160ff1916838001178555620003fe565b82800160010185558215620003fe579182015b82811115620003fe578251825591602001919060010190620003e1565b506200040c92915062000410565b5090565b5b808211156200040c576000815560010162000411565b600082198211156200044957634e487b7160e01b600052601160045260246000fd5b500190565b600060208083528351808285015260005b818110156200047d578581018301518582016040015282016200045f565b8181111562000490576000604083870101525b50601f01601f1916929092016040019392505050565b80516020808301519190811015620004c8576000198160200360031b1b821691505b50919050565b600181811c90821680620004e357607f821691505b60208210811415620004c857634e487b7160e01b600052602260045260246000fd5b60805160a05160c05160e0516101005161012051610140516114b162000560600039600061042e0152600061040301526000610b7901526000610b5101526000610aac01526000610ad601526000610b0001526114b16000f3fe608060405234801561001057600080fd5b50600436106101215760003560e01c8063715018a6116100ad578063a457c2d711610071578063a457c2d71461024d578063a9059cbb14610260578063d505accf14610273578063dd62ed3e14610286578063f2fde38b1461029957600080fd5b8063715018a6146101f45780637ecebe00146101fc57806384b0196e1461020f5780638da5cb5b1461022a57806395d89b411461024557600080fd5b8063313ce567116100f4578063313ce5671461018c5780633644e5151461019b57806339509351146101a357806340c10f19146101b657806370a08231146101cb57600080fd5b806306fdde0314610126578063095ea7b31461014457806318160ddd1461016757806323b872dd14610179575b600080fd5b61012e6102ac565b60405161013b91906111f3565b60405180910390f35b610157610152366004611229565b61033e565b604051901515815260200161013b565b6002545b60405190815260200161013b565b610157610187366004611253565b610358565b6040516012815260200161013b565b61016b61037c565b6101576101b1366004611229565b61038b565b6101c96101c4366004611229565b6103ad565b005b61016b6101d936600461128f565b6001600160a01b031660009081526020819052604090205490565b6101c96103c3565b61016b61020a36600461128f565b6103d7565b6102176103f5565b60405161013b97969594939291906112aa565b6005546040516001600160a01b03909116815260200161013b565b61012e61047e565b61015761025b366004611229565b61048d565b61015761026e366004611229565b61050d565b6101c9610281366004611340565b61051b565b61016b6102943660046113b3565b61067f565b6101c96102a736600461128f565b6106aa565b6060600380546102bb906113e6565b80601f01602080910402602001604051908101604052809291908181526020018280546102e7906113e6565b80156103345780601f1061030957610100808354040283529160200191610334565b820191906000526020600020905b81548152906001019060200180831161031757829003601f168201915b5050505050905090565b60003361034c81858561075d565b60019150505b92915050565b600033610366858285610881565b6103718585856108fb565b506001949350505050565b6000610386610a9f565b905090565b60003361034c81858561039e838361067f565b6103a8919061141b565b61075d565b6103b5610bca565b6103bf8282610c24565b5050565b6103cb610bca565b6103d56000610ce3565b565b6001600160a01b038116600090815260086020526040812054610352565b6000606080828080836104297f00000000000000000000000000000000000000000000000000000000000000006006610d35565b6104547f00000000000000000000000000000000000000000000000000000000000000006007610d35565b60408051600080825260208201909252600f60f81b9b939a50919850469750309650945092509050565b6060600480546102bb906113e6565b6000338161049b828661067f565b9050838110156105005760405162461bcd60e51b815260206004820152602560248201527f45524332303a2064656372656173656420616c6c6f77616e63652062656c6f77604482015264207a65726f60d81b60648201526084015b60405180910390fd5b610371828686840361075d565b60003361034c8185856108fb565b8342111561056b5760405162461bcd60e51b815260206004820152601d60248201527f45524332305065726d69743a206578706972656420646561646c696e6500000060448201526064016104f7565b60007f6e71edae12b1b97f4d1f60370fef10105fa2faae0126114a169c64845d6126c988888861059a8c610dd9565b6040805160208101969096526001600160a01b0394851690860152929091166060840152608083015260a082015260c0810186905260e00160405160208183030381529060405280519060200120905060006105f582610e01565b9050600061060582878787610e2e565b9050896001600160a01b0316816001600160a01b0316146106685760405162461bcd60e51b815260206004820152601e60248201527f45524332305065726d69743a20696e76616c6964207369676e6174757265000060448201526064016104f7565b6106738a8a8a61075d565b50505050505050505050565b6001600160a01b03918216600090815260016020908152604080832093909416825291909152205490565b6106b2610bca565b6001600160a01b0381166107175760405162461bcd60e51b815260206004820152602660248201527f4f776e61626c653a206e6577206f776e657220697320746865207a65726f206160448201526564647265737360d01b60648201526084016104f7565b61072081610ce3565b50565b600060208351101561073f5761073883610e56565b9050610352565b82828151610750926020019061110d565b5060ff9050610352565b90565b6001600160a01b0383166107bf5760405162461bcd60e51b8152602060048201526024808201527f45524332303a20617070726f76652066726f6d20746865207a65726f206164646044820152637265737360e01b60648201526084016104f7565b6001600160a01b0382166108205760405162461bcd60e51b815260206004820152602260248201527f45524332303a20617070726f766520746f20746865207a65726f206164647265604482015261737360f01b60648201526084016104f7565b6001600160a01b0383811660008181526001602090815260408083209487168084529482529182902085905590518481527f8c5be1e5ebec7d5bd14f71427d1e84f3dd0314c0f7b2291e5b200ac8c7c3b925910160405180910390a3505050565b600061088d848461067f565b905060001981146108f557818110156108e85760405162461bcd60e51b815260206004820152601d60248201527f45524332303a20696e73756666696369656e7420616c6c6f77616e636500000060448201526064016104f7565b6108f5848484840361075d565b50505050565b6001600160a01b03831661095f5760405162461bcd60e51b815260206004820152602560248201527f45524332303a207472616e736665722066726f6d20746865207a65726f206164604482015264647265737360d81b60648201526084016104f7565b6001600160a01b0382166109c15760405162461bcd60e51b815260206004820152602360248201527f45524332303a207472616e7366657220746f20746865207a65726f206164647260448201526265737360e81b60648201526084016104f7565b6001600160a01b03831660009081526020819052604090205481811015610a395760405162461bcd60e51b815260206004820152602660248201527f45524332303a207472616e7366657220616d6f756e7420657863656564732062604482015265616c616e636560d01b60648201526084016104f7565b6001600160a01b03848116600081815260208181526040808320878703905593871680835291849020805487019055925185815290927fddf252ad1be2c89b69c2b068fc378daa952ba7f163c4a11628f55a4df523b3ef910160405180910390a36108f5565b6000306001600160a01b037f000000000000000000000000000000000000000000000000000000000000000016148015610af857507f000000000000000000000000000000000000000000000000000000000000000046145b15610b2257507f000000000000000000000000000000000000000000000000000000000000000090565b610386604080517f8b73c3c69bb8fe3d512ecc4cf759cc79239f7b179b0ffacaa9a75d522b39400f60208201527f0000000000000000000000000000000000000000000000000000000000000000918101919091527f000000000000000000000000000000000000000000000000000000000000000060608201524660808201523060a082015260009060c00160405160208183030381529060405280519060200120905090565b6005546001600160a01b031633146103d55760405162461bcd60e51b815260206004820181905260248201527f4f776e61626c653a2063616c6c6572206973206e6f7420746865206f776e657260448201526064016104f7565b6001600160a01b038216610c7a5760405162461bcd60e51b815260206004820152601f60248201527f45524332303a206d696e7420746f20746865207a65726f20616464726573730060448201526064016104f7565b8060026000828254610c8c919061141b565b90915550506001600160a01b038216600081815260208181526040808320805486019055518481527fddf252ad1be2c89b69c2b068fc378daa952ba7f163c4a11628f55a4df523b3ef910160405180910390a35050565b600580546001600160a01b038381166001600160a01b0319831681179093556040519116919082907f8be0079c531659141344cd1fd0a4f28419497f9722a3daafe3b4186f6b6457e090600090a35050565b606060ff8314610d485761073883610e94565b818054610d54906113e6565b80601f0160208091040260200160405190810160405280929190818152602001828054610d80906113e6565b8015610dcd5780601f10610da257610100808354040283529160200191610dcd565b820191906000526020600020905b815481529060010190602001808311610db057829003601f168201915b50505050509050610352565b6001600160a01b03811660009081526008602052604090208054600181018255905b50919050565b6000610352610e0e610a9f565b8360405161190160f01b8152600281019290925260228201526042902090565b6000806000610e3f87878787610ed3565b91509150610e4c81610f97565b5095945050505050565b600080829050601f81511115610e81578260405163305a27a960e01b81526004016104f791906111f3565b8051610e8c82611441565b179392505050565b60606000610ea1836110e5565b604080516020808252818301909252919250600091906020820181803683375050509182525060208101929092525090565b6000807f7fffffffffffffffffffffffffffffff5d576e7357a4501ddfe92f46681b20a0831115610f0a5750600090506003610f8e565b6040805160008082526020820180845289905260ff881692820192909252606081018690526080810185905260019060a0016020604051602081039080840390855afa158015610f5e573d6000803e3d6000fd5b5050604051601f1901519150506001600160a01b038116610f8757600060019250925050610f8e565b9150600090505b94509492505050565b6000816004811115610fab57610fab611465565b1415610fb45750565b6001816004811115610fc857610fc8611465565b14156110165760405162461bcd60e51b815260206004820152601860248201527f45434453413a20696e76616c6964207369676e6174757265000000000000000060448201526064016104f7565b600281600481111561102a5761102a611465565b14156110785760405162461bcd60e51b815260206004820152601f60248201527f45434453413a20696e76616c6964207369676e6174757265206c656e6774680060448201526064016104f7565b600381600481111561108c5761108c611465565b14156107205760405162461bcd60e51b815260206004820152602260248201527f45434453413a20696e76616c6964207369676e6174757265202773272076616c604482015261756560f01b60648201526084016104f7565b600060ff8216601f81111561035257604051632cd44ac360e21b815260040160405180910390fd5b828054611119906113e6565b90600052602060002090601f01602090048101928261113b5760008555611181565b82601f1061115457805160ff1916838001178555611181565b82800160010185558215611181579182015b82811115611181578251825591602001919060010190611166565b5061118d929150611191565b5090565b5b8082111561118d5760008155600101611192565b6000815180845260005b818110156111cc576020818501810151868301820152016111b0565b818111156111de576000602083870101525b50601f01601f19169290920160200192915050565b60208152600061120660208301846111a6565b9392505050565b80356001600160a01b038116811461122457600080fd5b919050565b6000806040838503121561123c57600080fd5b6112458361120d565b946020939093013593505050565b60008060006060848603121561126857600080fd5b6112718461120d565b925061127f6020850161120d565b9150604084013590509250925092565b6000602082840312156112a157600080fd5b6112068261120d565b60ff60f81b881681526000602060e0818401526112ca60e084018a6111a6565b83810360408501526112dc818a6111a6565b606085018990526001600160a01b038816608086015260a0850187905284810360c0860152855180825283870192509083019060005b8181101561132e57835183529284019291840191600101611312565b50909c9b505050505050505050505050565b600080600080600080600060e0888a03121561135b57600080fd5b6113648861120d565b96506113726020890161120d565b95506040880135945060608801359350608088013560ff8116811461139657600080fd5b9699959850939692959460a0840135945060c09093013592915050565b600080604083850312156113c657600080fd5b6113cf8361120d565b91506113dd6020840161120d565b90509250929050565b600181811c908216806113fa57607f821691505b60208210811415610dfb57634e487b7160e01b600052602260045260246000fd5b6000821982111561143c57634e487b7160e01b600052601160045260246000fd5b500190565b80516020808301519190811015610dfb5760001960209190910360031b1b16919050565b634e487b7160e01b600052602160045260246000fdfea2646970667358221220fcce952043b90e7140b79dce7d1e11b523cba3e0023820bf5e06b7d19e5ee8cf64736f6c63430008090033",
  "linkReferences": {},
  "deployedLinkReferences": {}
}